:02000000CE2D03
:10000800FF00030E83018316E3000A08E2008A0159
:1000180070088312AD007108AC007208AB00730859
:10002800AA007408A9007508A8007608A700770830
:10003800A6007808A5007908A4007A08A3007B0820
:10004800A2007C08A1000408AE000C1C3D28EE0AA2
:1000580000306E02031C312807156F086E02031C5E
:100068003728FB3087056E08283A031D3D28EE0126
:100078000715FF306D02031D4328FF306C0203187B
:100088004828EC0A0319ED0AFF308F0083308E00F0
:1000980083164508031953282030831287068312D4
:1000A8006D08273A031D5A2810306C06031D5F2877
:1000B8000715CF3087056D082E3A031D6528E030F7
:1000C8006C06031D8C288316C50103308312EF00CC
:1000D8008715EF30870502308316EB00942428300B
:1000E80083160313EB0094240E3083160313EB00DE
:1000F8009424013083160313EB0094248030831674
:100108000313EB009424AC3083160313EB00CB24C9
:10011800FE3083128C058C1E792983164408C63E4E
:10012800840083121A0880008316C40A4408053A1A
:10013800031D7629C630EB00B830EC000530ED0021
:10014800152500307106031DAB2800307006031D0D
:1001580076290230EB009424283083160313EB0031
:1001680094240E3083160313EB0094240130831675
:100178000313EB009424803083160313EB009424BC
:10018800BE3083160313EB00CB24E9010430690267
:100198000318D8286908443EEA0040256A08840004
:1001A80070088000E90ACA280430EB000030EC002F
:1001B8004430ED00EE240230EB00942428308316FE
:1001C8000313EB0094240E3083160313EB009424DE
:1001D800013083160313EB00942480308316031335
:1001E800EB009424593083160313EB00CB2404301E
:1001F800EB000030EC003F30ED0077240230EB00DC
:100208009424283083160313EB0094240E308316AD
:100218000313EB009424013083160313EB0094249A
:10022800803083160313EB0094242F3083160313B6
:10023800EB00CB244430EB0020240230EB00942464
:10024800283083160313EB0094240E30831603130F
:10025800EB009424013083160313EB0094248030C0
:1002680083160313EB009424383083160313EB0032
:10027800CB243F30EB004430EC000430ED00152572
:1002880000307106031D4A2900307006031D7629C7
:100298000130C50001308312EF000716F7308705DB
:1002A80002308316EB009424283083160313EB00E6
:1002B80094240E3083160313EB0094240130831624
:1002C8000313EB009424803083160313EB0094246B
:1002D8005E3083160313EB00CB248312EC01ED018F
:1002E8008316C401DF3083128C052D08F0002C081A
:1002F800F1002B08F2002A08F3002908F400280866
:10030800F5002708F6002608F7002508F800240855
:10031800F9002308FA002208FB002108FC002E0837
:100328008400831662088A00630E8300FF0E7F0E26
:020338000900BA
:10033A0083120313F101F201031713087202031D5A
:10034A00A829120871020318AE29F10A0319F20A40
:04035A00A1290800CD
:10035E0083120313F101F201831668087202031D62
:10036E00BA29670871020318C029F10A0319F20AA3
:04037E00B329080097
:1003820083120313F201043072020318DB2972088C
:1003920003171007F100710884000008F0007208CA
:1003A200110784000008F0067108840070088000BC
:0603B200F20AC429080054
:1003B800EF30831203138C050317100803139900F9
:0203C80008002B
:1003CA00831203132230FC00F801F901FA01FB0140
:1003DA00FC0303191B2A0310FB0CFA0CF90CF80C8A
:1003EA00F30CF20CF10CF00C031CED29FC030319BD
:1003FA000D2A7408F80775080318750FF9077608A7
:10040A000318760FFA0777080318770FFB07F12905
:10041A007408F80775080318750FF90776080318A2
:0E042A00760FFA0777080318770FFB07080014
:1004380083120313FB01FA01F901F801A001730DFE
:10044800F80D7408F8027508031C750FF902760890
:10045800031C760FFA027708031C770FFB020001D2
:10046800031C0130A002F30D0730FC00730DF80DDA
:10047800F90DFA0DFB0DA00D7408731C552AF8022E
:100488007508031C750FF9027608031C760FFA022B
:100498007708031C770FFB020001031C0130A00240
:1004A800662AF80775080318750FF9077608031800
:1004B800760FFA0777080318770FFB070001031870
:1004C8000130A007F30DFC0B3A2A720DF80DF90D57
:1004D800FA0DFB0DA00D7408731C842AF802750828
:1004E800031C750FF9027608031C760FFA027708C9
:1004F800031C770FFB020001031C0130A002952AA0
:10050800F80775080318750FF90776080318760FAA
:10051800FA0777080318770FFB0700010318013063
:10052800A007F20D0730FC00720DF80DF90DFA0D59
:10053800FB0DA00D7408721CB32AF8027508031C81
:10054800750FF9027608031C760FFA027708031C68
:10055800770FFB020001031C0130A002C42AF80730
:1005680075080318750FF90776080318760FFA0748
:1005780077080318770FFB07000103180130A0075D
:10058800F20DFC0B982A710DF80DF90DFA0DFB0D03
:10059800A00D7408721CE22AF8027508031C750F76
:1005A800F9027608031C760FFA027708031C770F06
:1005B800FB020001031C0130A002F32AF8077508AA
:1005C8000318750FF90776080318760FFA077708E6
:1005D8000318770FFB07000103180130A007F10D7E
:1005E8000730FC00710DF80DF90DFA0DFB0DA00D8B
:1005F8007408711C112BF8027508031C750FF90299
:100608007608031C760FFA027708031C770FFB02A3
:100618000001031C0130A002222BF80775080318FB
:10062800750FF90776080318760FFA077708031885
:10063800770FFB07000103180130A007F10DFC0B31
:10064800F62A700DF80DF90DFA0DFB0DA00D7408C2
:10065800711C402BF8027508031C750FF902760807
:10066800031C760FFA027708031C770FFB020001C0
:10067800031C0130A002512BF80775080318750FE9
:10068800F90776080318760FFA0777080318770F23
:10069800FB07000103180130A007F00D0730FC002C
:1006A800700DF80DF90DFA0DFB0DA00D7408701CF6
:1006B8006F2BF8027508031C750FF9027608031CE6
:1006C800760FFA027708031C770FFB020001031C60
:1006D8000130A002802BF80775080318750FF90779
:1006E80076080318760FFA0777080318770FFB07C1
:1006F800000103180130A007F00DFC0B542B7018F3
:10070800932B7408F80775080318750FF90776080E
:100718000318760FFA0777080318770FFB07080006
:10072800831203138C1A992B942BDF308C051A082B
:04073800F0000800C5
:0E073C008316031360088A005F08820008001D
:10074A00F030831603136605831288000814881094
:10075A000815FA308316E700E801AF218312081161
:10076A00F4308316E7000130E800AF216608F00094
:10077A00F00D7010F00D7010F00D7010F00D70107B
:10078A00F030700583128800081488100815FA30B2
:10079A008316E700E801AF2183120811F4308316AB
:0A07AA00E7000130E800AF2108006D
:1007B40083120317100883160313DB008312031735
:1007C400110883160313DC00DD01DE010130E100B2
:0207D40008001B
:1007D600F0308312031710050313880008148810DD
:1007E6000815FA300317920093019D21031308118F
:1007F600F43003179200013093009D211008F00099
:10080600F00D7010F00D7010F00D7010F00D7010EE
:10081600F030700503138800081488100815FA30A4
:100826000317920093019D2103130811F430031757
:0A0836009200013093009D2108009C
:10084000013083160313EC006C08043C031C412C9C
:100850006B08831203179000831603136C08F000D3
:10086000F101F00DF10D7010F00DF10D7010700828
:100870006B07831203179100C12183160313EC0A3F
:04088000242C08001C
:10088400F03083160313640583128800081088105F
:100894000815FA308316E700E801AF218312081126
:1008A400F4308316E7000130E800AF216408F0005B
:1008B400F00D7010F00D7010F00D7010F00D701040
:1008C400F030700583128800081088100815FA307B
:1008D4008316E700E801AF2183120811F430831670
:0A08E400E7000130E800AF21080032
:1008EE007F308B0583160313EE018030F0008030CD
:1008FE006C067002031D852C6B086E020318922C79
:10090E006E086D07EF00942383166F08840070083D
:0A091E008000EE0A7C2C8B17080005
:10092800F030831603136B058312880008108810B3
:100938000815FA300317920093019D21031308113B
:10094800F43003179200013093009D21831603139E
:100958006B08F000F00D7010F00D7010F00D7010B5
:10096800F00D7010F03070058312880008108810A0
:100978000815FA300317920093019D2103130811FB
:0E098800F43003179200013093009D21080007
:1009960083160313EC016C086B0784000008003A09
:1009A6000319E12C6C086B078400000883120317F7
:0E09B6009000EB2383160313EC0ACE2C0800EE
:1009C4009E238A110A128000840ADF0A0319E00AAE
:0809D400F003031DE22C0800F2
:1009DC0083160313EE018030F00080306C06700239
:1009EC00031DFA2C6B086E020318142D6E086D078C
:1009FC0084000008831203179000DC210230FB00F6
:100A0C000430FC00BA30FD00FD0B0A2DFC0B0A2D46
:0E0A1C00FB0B0A2D00008316EE0AF12C0800D9
:100A2A00831603136D08F000ED03700803193D2DBA
:100A3A006B0884000008003A03192E2D6C08840004
:100A4A000008F1006B08840000087106031D2E2DB2
:100A5A003A2D6B0884000008F0006C088400000836
:100A6A00F002F101031CF1033F2DEB0AEC0A152DEC
:060A7A00F001F10108008B
:100A8000831603136108031D4C2D013083120317D5
:100A9000900000309100DA235B08F0005C08F10060
:100AA0005D08F2005E08F3006D30F4004E30F50092
:100AB000C630F6004130F700E5213930F50030301E
:100AC000F600F701F8017008F50771080318710FB7
:100AD000F60772080318720FF70773080318730FED
:100AE000F8077708F0007808F1000030F81BFF30B5
:100AF000F200F300FF30F0057F30F1050030F20521
:100B0000F30570088316DB007108DC007208DD0055
:060B10007308DE0008007E
:100B160083160313E5016508640784000008003A9C
:100B260003199D2D6508640784000008E600A523C7
:060B3600E50A8E2D080007
:100B3C0080308316031387000C148C162030980019
:100B4C00903083129800903098000630F000831695
:100B5C006408F4006508F5000030F51BFF30F60062
:100B6C00F70070080319C12DF40DF50DF60DF70DF6
:100B7C007410FF3EB82D0030F0001230F1007A30C6
:100B8C00F2000030F3001C22700383169900080059
:100B9C008026C0308B003130831203139000FF305D
:100BAC008F0083308E0080308316E4002530E50002
:100BBC009E2501300C0483128C008316C501831210
:100BCC008715CF308705831688010230E400422454
:100BDC002830E40042240E30E40042240130E400CA
:100BEC0042248030E4004224A030E4008B25FD2D0B
:020BFC00FE2DCC
:100D00002F3084003D3083120313F000043083162B
:100D1000DF000630E000E224A03084001830031326
:100D2000F00064308316DF000630E000E2246C300F
:100D3000840004300313F0007C308316DF0006309B
:100D4000E000E224B830840023300313F000413087
:0C0D50008316DF000630E000E2240800FB
:100C08005234653463346934653476346534643415
:020C18000034A6
:0E0C1A00483461347334683465346434003413
:0A0C280031343134313431340034FA
:100C3200303430343034303430343134323433348C
:100C420034343534363437343834393461346234F8
:0A0C52006334643465346634003402
:0A0C5C00533465346E3474340034F0
:100C660044346F346F347234203455346E346C34FB
:0C0C76006F3463346B3465346434003434
:0C0C8200683465346C346C346F3400341A
:0C0C8E00683465346C346C346F3400340E
:020C9A00003424
:020C9C00003422
:100C9E003034303430343034303430343034303426
:100CAE003034303430343034303430343034303416
:0A0CBE003034303430343034003468
:100CC80044346F346F34723420344C346F346334AA
:080CD8006B3465346434003410
:100CE00044346F346F34723420344C346F34633492
:080CF0006B34653464340034F8
:040CF800FF34FF3492
:020CFC000034C2
:020CFE000334BD
:02400E004A2F37
:00000001FF
