:02000000DD2DF4
:10000800FF00030E8301031795000A0894008A0174
:1000180070080313AD007108AC007208AB007308D8
:10002800AA007408A9007508A8007608A700770830
:10003800A6007808A5007908A4007A08A3007B0820
:10004800A2007C08A1000408AE008316EB0A03197D
:10005800EC0A83120C1C49288316EA0A00306A024B
:10006800031C38288312071583126F0883166A0247
:10007800031C4128FB308312870583166A08283A37
:10008800031D4928EA0183120715FF30831626024B
:10009800031D5028FF30250203185528A50A031907
:1000A800A60AFF3083128F0083308E003F080319A1
:1000B8006C28003083166C06031D6428FA306B0622
:1000C800031D6C282030831287068316EB01EC0190
:1000D80083162608273A031D732810302506031DAA
:1000E800792883120715CF308705831626082E3AFC
:1000F800031D8028E0302506031D9E288312BF01BA
:100108000330EF008715EF308705023003179D0095
:10011800A92428309D00A9240E309D00A92401306F
:100128009D00A92480309D00A924A7309D00DE24CD
:10013800FD3086058312FE3003138C058C1E712951
:1001480083163308B43E840083121A08800083168D
:10015800B30A3308053A031D6D29B4308312031717
:100168009D00E4309E0005309F0022250030710676
:10017800031DC02800307006031D6D2902309D0044
:10018800A92428309D00A9240E309D00A9240130FF
:100198009D00A92480309D00A924C9309D00DE243B
:1001A8008230FC00DD30FD00FD0BD828FC0BD82880
:1001B800000000009B0104301B020318ED281B08F7
:1001C800CF3E9C004D251C088400700880009B0AC7
:1001D800DF2804309D0000309E00CF309F00FD24B2
:1001E80002309D00A92428309D00A9240E309D00CE
:1001F800A92401309D00A92480309D00A924A030A5
:100208009D00DE2404309D0000309E004C309F008D
:100218008C2402309D00A92428309D00A9240E308A
:100228009D00A92401309D00A92480309D00A924A7
:100238002F309D00DE24CF309D003B2402309D00EE
:10024800A92428309D00A9240E309D00A92401303E
:100258009D00A92480309D00A92438309D00DE240B
:100268004C309D00CF309E0004309F002225003086
:100278007106031D412900307006031D6D290130E8
:100288000313BF008316EB01EC0101308312EF006A
:100298000716F7308705023003179D00A924283078
:1002A8009D00A9240E309D00A92401309D00A92499
:1002B80080309D00A92451309D00DE248614013031
:1002C800831603130C0483128C008316A501A60160
:1002D800B3010313DF3083128C058B1C972901307F
:1002E800BF008316EB01EC0101308312EF00071603
:1002F800F7308705023003179D00A92428309D0098
:10030800A9240E309D00A92401309D00A924803025
:100318009D00A9245F309D00DE2483160313A501E8
:10032800A601FD308B0583122D08F0002C08F10082
:100338002B08F2002A08F3002908F4002808F50021
:100348002708F6002608F7002508F8002408F90011
:100358002308FA002208FB002108FC002E0884006C
:10036800031714088A00150E8300FF0E7F0E09007C
:1003780083120313F101F201031725087202031D0A
:10038800C729240871020318CD29F10A0319F20AB2
:04039800C029080070
:10039C0083120313F101F20103171A087202031DF1
:1003AC00D929190871020318DF29F10A0319F20A75
:0403BC00D22908003A
:1003C00083120313F201043072020318FA2972082F
:1003D00003172207F100710884000008F00072087A
:1003E000230784000008F00671088400700880006C
:0603F000F20AE3290800F7
:1003F600EF30831203138C050317220803139900A9
:020406000800EC
:10040800831203132230FC00F801F901FA01FB0101
:10041800FC0303193A2A0310FB0CFA0CF90CF80C2C
:10042800F30CF20CF10CF00C031C0C2AFC0303195E
:100438002C2A7408F80775080318750FF907760849
:100448000318760FFA0777080318770FFB07102AA7
:100458007408F80775080318750FF9077608031864
:0E046800760FFA0777080318770FFB070800D6
:1004760083120313FB01FA01F901F801A001730DC0
:10048600F80D7408F8027508031C750FF902760852
:10049600031C760FFA027708031C770FFB02000194
:1004A600031C0130A002F30D0730FC00730DF80D9C
:1004B600F90DFA0DFB0DA00D7408731C742AF802D1
:1004C6007508031C750FF9027608031C760FFA02ED
:1004D6007708031C770FFB020001031C0130A00202
:1004E600852AF80775080318750FF90776080318A3
:1004F600760FFA0777080318770FFB070001031832
:100506000130A007F30DFC0B592A720DF80DF90DF9
:10051600FA0DFB0DA00D7408731CA32AF8027508CA
:10052600031C750FF9027608031C760FFA0277088A
:10053600031C770FFB020001031C0130A002B42A42
:10054600F80775080318750FF90776080318760F6C
:10055600FA0777080318770FFB0700010318013025
:10056600A007F20D0730FC00720DF80DF90DFA0D1B
:10057600FB0DA00D7408721CD22AF8027508031C24
:10058600750FF9027608031C760FFA027708031C2A
:10059600770FFB020001031C0130A002E32AF807D3
:1005A60075080318750FF90776080318760FFA070A
:1005B60077080318770FFB07000103180130A0071F
:1005C600F20DFC0BB72A710DF80DF90DFA0DFB0DA6
:1005D600A00D7408721C012BF8027508031C750F18
:1005E600F9027608031C760FFA027708031C770FC8
:1005F600FB020001031C0130A002122BF80775084C
:100606000318750FF90776080318760FFA077708A7
:100616000318770FFB07000103180130A007F10D3F
:100626000730FC00710DF80DF90DFA0DFB0DA00D4C
:100636007408711C302BF8027508031C750FF9023B
:100646007608031C760FFA027708031C770FFB0265
:100656000001031C0130A002412BF807750803189E
:10066600750FF90776080318760FFA077708031847
:10067600770FFB07000103180130A007F10DFC0BF3
:10068600152B700DF80DF90DFA0DFB0DA00D740864
:10069600711C5F2BF8027508031C750FF9027608AA
:1006A600031C760FFA027708031C770FFB02000182
:1006B600031C0130A002702BF80775080318750F8C
:1006C600F90776080318760FFA0777080318770FE5
:1006D600FB07000103180130A007F00D0730FC00EE
:1006E600700DF80DF90DFA0DFB0DA00D7408701CB8
:1006F6008E2BF8027508031C750FF9027608031C89
:10070600760FFA027708031C770FFB020001031C21
:100716000130A0029F2BF80775080318750FF9071B
:1007260076080318760FFA0777080318770FFB0782
:10073600000103180130A007F00DFC0B732B701895
:10074600B22B7408F80775080318750FF9077608B1
:100756000318760FFA0777080318770FFB070800C8
:10076600831203138C1AB82BB32BDF308C051A08AF
:04077600F000080087
:0E077A00831603136E088A006D0882000800C3
:10078800F030831203171805031388000814881023
:100798000815FA30031799009A01CE21031308119E
:1007A800F4300317990001309A00CE211808F000A0
:1007B800F00D7010F00D7010F00D7010F00D70103D
:1007C800F030700503138800081488100815FA30F3
:1007D800031799009A01CE2103130811F430031767
:0A07E800990001309A00CE210800AC
:1007F20083120317220890002308910092019301AB
:0A080200013083160313EF00080015
:10080C00F030831203172205031388000814881094
:10081C000815FA300317A400A501BC210313081115
:10082C00F4300317A4000130A500BC212208F0000D
:10083C00F00D7010F00D7010F00D7010F00D7010B8
:10084C00F030700503138800081488100815FA306E
:10085C000317A400A501BC2103130811F4300317DE
:0A086C00A4000130A500BC21080023
:100876000130831203179E001E08043C031C562CED
:100886001D08A2001E08F000F101F00DF10D701018
:10089600F00DF10D701070081D07A300E021831202
:0808A60003179E0A3F2C080015
:1008AE00F030831203171605031388000810881002
:1008BE000815FA30031799009A01CE210313081177
:1008CE00F4300317990001309A00CE211608F0007B
:1008DE00F00D7010F00D7010F00D7010F00D701016
:1008EE00F030700503138800081088100815FA30D0
:1008FE00031799009A01CE2103130811F430031740
:0A090E00990001309A00CE21080084
:100918007F308B0583120317A0018030F0008030F0
:100928001E067002031D9A2C1D0820020318A72C0E
:1009380020081F07A100B3230317210884007008AB
:0A0948008000A00A912C8B17080014
:10095200F030831203171D05031388000810881056
:100962000815FA300317A400A501BC2103130811CE
:10097200F4300317A4000130A500BC211D08F000CB
:10098200F00D7010F00D7010F00D7010F00D701071
:10099200F030700503138800081088100815FA302B
:1009A2000317A400A501BC2103130811F430031797
:0A09B200A4000130A500BC210800DC
:1009BC00831203179E011E081D0784000008003ACD
:1009CC000319F02C1E081D0784000008A200062441
:0609DC009E0AE12C080058
:1009E200BD238A110A128000840AED0A0319EE0A55
:0809F200F003031DF12C0800C5
:1009FA0083120317A0018030F00080301E067002B7
:100A0A00031D092D1D0820020318212D20081F0788
:100A1A0084000008A200FB210230FB000430FC0025
:100A2A00BA30FD00FD0B172DFC0B172DFB0B172DF4
:0A0A3A0000000317A00A002D0800B9
:100A4400831203171F08F0009F03700803194A2D2F
:100A54001D0884000008003A03193B2D1E08840079
:100A64000008F1001D08840000087106031D3B2DD9
:100A7400472D1D0884000008F0001E0884000008AB
:100A8400F002F101031CF1034C2D9D0A9E0A222D54
:060A9400F001F101080071
:100A9A00831603136F08031D592D013083120317A0
:100AAA00A2000030A300F923831203171008F000F4
:100ABA001108F1001208F2001308F3006D30F40077
:100ACA004E30F500C630F6004130F70004223930C6
:100ADA00F5003030F600F701F8017008F5077108E3
:100AEA000318710FF60772080318720FF7077308D5
:100AFA000318730FF8077708F0007808F100003040
:100B0A00F81BFF30F200F300FF30F0057F30F105EB
:100B1A000030F205F3057008031790007108910080
:0A0B2A00720892007308930008009F
:100B34008312031797011708160784000008003A68
:100B44000319AC2D17081607840000089800C42365
:060B5400970A9D2D080028
:100B5A0080308316031387000C148C1620309800FB
:100B6A00903083129800903098000630F0000317F6
:100B7A001608F4001708F5000030F51BFF30F600E0
:100B8A00F70070080319D02DF40DF50DF60DF70DC9
:100B9A007410FF3EC72D0030F0001230F1007A3099
:100BAA00F2000030F3003B2270038316990008001C
:100BBA00A426D0308B003130831203139000FF300B
:100BCA008F0083308E0080300317960025309700FF
:100BDA00AD258312BF018715CF308705831688019B
:100BEA0002308312031796005724283096005724A0
:100BFA000E30960057240130960057248030960014
:100C0A005724403096009A25FD3083160313860533
:0A0C1A00FD3083128605102E112E06
:100D48002F308400403083120313F0005D30831687
:100D5800ED000630EE00F124A03084000730831245
:100D6800F0009D308316ED000630EE00F1246F3060
:100D7800840001308312F00003308316ED00003048
:100D8800EE00F124A730840046308312F0001730BB
:0C0D98008316ED000630EE00F124080088
:020006000334C1
:100C2E0044346F346F34723420344C346F34633444
:080C3E006B34653464340034AA
:020C4600003478
:100C4800303430343034303430343034303430347C
:100C5800303430343034303430343034303430346C
:0A0C680030343034303430340034BE
:0C0C7200683465346C346C346F3400342A
:100C7E003034303430343034303431343234333440
:100C8E0034343534363437343834393461346234AC
:0A0C9E0063346434653466340034B6
:0C0CA800683465346C346C346F340034F4
:020CB40000340A
:040CB60000340034D2
:100CBA005234653463346934653476346534643463
:020CCA000034F4
:0E0CCC00483461347334683465346434003461
:020CDA000034E4
:100CDC0044346F346F34723420344C346F34633496
:080CEC006B34653464340034FC
:0A0CF400313431343134313400342E
:100CFE0044346F346F347234203455346E346C3463
:0C0D0E006F3463346B346534643400349B
:100D1A0055346E346C346F3463346B3465346434F4
:100D2A002034623479342034453453345034003416
:0A0D3A00533465346E347434003411
:040D4400FF34FF3445
:02400E004A2F37
:00000001FF
