:02000000D32DFE
:10000800FF00030E830103179E000A089D008A0162
:1000180070080313AD007108AC007208AB007308D8
:10002800AA007408A9007508A8007608A700770830
:10003800A6007808A5007908A4007A08A3007B0820
:10004800A2007C08A1000408AE008316D10A031997
:10005800D20A83120C1C48288316EC0A00306C0262
:10006800031C382883120715831668086C02031CC2
:100078004028FB308312870583166C08283A031D35
:100088004828EC0183120715FF3083166A02031D06
:100098004F28FF30690203185428E90A0319EA0AAD
:1000A800FF3083128F0083308E0083166B0803198C
:1000B8006B2800305206031D6328FA305106031DD1
:1000C8006B282030831287068316D101D2016A0873
:1000D800273A031D712810306906031D77288312FB
:1000E8000715CF30870583166A082E3A031D7E2828
:1000F800E0306906031D9A28EB010330E8008312FB
:100108008715EF30870502300317A6009F24283093
:10011800A6009F240E30A6009F240130A6009F242D
:100128008030A6009F24AF30A600D4248312FE306E
:1001380003138C058C1E66294D08553E84001A0849
:100148008000CD0A4D08053A031D63295530031771
:10015800A6006A30A7000530A800182500307106EF
:10016800031DB82800307006031D63290230A6005D
:100178009F242830A6009F240E30A6009F2401301B
:10018800A6009F248030A6009F24A030A600D42477
:100198000230FB000430FC00BA30FD00FD0BD22811
:1001A800FC0BD228FB0BD2280000A4010430240247
:1001B8000318E8282408D33EA50043252508840011
:1001C80070088000A40ADA280430A6000030A700CE
:1001D800D330A800F3240230A6009F242830A600BC
:1001E8009F240E30A6009F240130A6009F24803053
:1001F800A6009F24CC30A600D4240430A6000030EA
:10020800A700BB30A80082240230A6009F24283013
:10021800A6009F240E30A6009F240130A6009F242C
:100228008030A6009F241030A600D424D330A60026
:1002380031240230A6009F242830A6009F240E30C7
:10024800A6009F240130A6009F248030A6009F248A
:100258004E30A600D424BB30A600D330A70004300B
:10026800A800182500307106031D3C2900307006CF
:10027800031D6329013083160313EB00D101D2015A
:100288000130E80083120716F7308705023003179C
:10029800A6009F242830A6009F240E30A6009F2485
:1002A8000130A6009F248030A6009F242F30A6008E
:1002B800D42483160313E901EA018312CD01031341
:1002C800DF308C058B1C8D2901308316EB00D101A2
:1002D800D2010130E80083120716F7308705023093
:1002E8000317A6009F242830A6009F240E30A600DE
:1002F8009F240130A6009F248030A6009F243D3013
:10030800A600D424861483160313E901EA01FD30FC
:100318008B0583122D08F0002C08F1002B08F20041
:100328002A08F3002908F4002808F5002708F60031
:100338002608F7002508F8002408F9002308FA0021
:100348002208FB002108FC002E08840003171D0862
:0C0358008A001E0E8300FF0E7F0E0900BD
:1003640083120313F101F20103172E087202031D15
:10037400BD292D0871020318C329F10A0319F20AD1
:04038400B62908008E
:1003880083120313F101F201031723087202031DFC
:10039800CF29220871020318D529F10A0319F20A94
:0403A800C829080058
:1003AC0083120313F201043072020318F02972084D
:1003BC0003172B07F100710884000008F000720885
:1003CC002C0784000008F006710884007008800077
:0603DC00F20AD929080015
:1003E200EF30831203138C0503172B0803139900B4
:0203F200080001
:1003F400831203132230FC00F801F901FA01FB0116
:10040400FC030319302A0310FB0CFA0CF90CF80C4A
:10041400F30CF20CF10CF00C031C022AFC0303197C
:10042400222A7408F80775080318750FF907760867
:100434000318760FFA0777080318770FFB07062AC5
:100444007408F80775080318750FF9077608031878
:0E045400760FFA0777080318770FFB070800EA
:1004620083120313FB01FA01F901F801A001730DD4
:10047200F80D7408F8027508031C750FF902760866
:10048200031C760FFA027708031C770FFB020001A8
:10049200031C0130A002F30D0730FC00730DF80DB0
:1004A200F90DFA0DFB0DA00D7408731C6A2AF802EF
:1004B2007508031C750FF9027608031C760FFA0201
:1004C2007708031C770FFB020001031C0130A00216
:1004D2007B2AF80775080318750FF90776080318C1
:1004E200760FFA0777080318770FFB070001031846
:1004F2000130A007F30DFC0B4F2A720DF80DF90D18
:10050200FA0DFB0DA00D7408731C992AF8027508E8
:10051200031C750FF9027608031C760FFA0277089E
:10052200031C770FFB020001031C0130A002AA2A60
:10053200F80775080318750FF90776080318760F80
:10054200FA0777080318770FFB0700010318013039
:10055200A007F20D0730FC00720DF80DF90DFA0D2F
:10056200FB0DA00D7408721CC82AF8027508031C42
:10057200750FF9027608031C760FFA027708031C3E
:10058200770FFB020001031C0130A002D92AF807F1
:1005920075080318750FF90776080318760FFA071E
:1005A20077080318770FFB07000103180130A00733
:1005B200F20DFC0BAD2A710DF80DF90DFA0DFB0DC4
:1005C200A00D7408721CF72AF8027508031C750F37
:1005D200F9027608031C760FFA027708031C770FDC
:1005E200FB020001031C0130A002082BF80775086A
:1005F2000318750FF90776080318760FFA077708BC
:100602000318770FFB07000103180130A007F10D53
:100612000730FC00710DF80DF90DFA0DFB0DA00D60
:100622007408711C262BF8027508031C750FF90259
:100632007608031C760FFA027708031C770FFB0279
:100642000001031C0130A002372BF80775080318BC
:10065200750FF90776080318760FFA07770803185B
:10066200770FFB07000103180130A007F10DFC0B07
:100672000B2B700DF80DF90DFA0DFB0DA00D740882
:10068200711C552BF8027508031C750FF9027608C8
:10069200031C760FFA027708031C770FFB02000196
:1006A200031C0130A002662BF80775080318750FAA
:1006B200F90776080318760FFA0777080318770FF9
:1006C200FB07000103180130A007F00D0730FC0002
:1006D200700DF80DF90DFA0DFB0DA00D7408701CCC
:1006E200842BF8027508031C750FF9027608031CA7
:1006F200760FFA027708031C770FFB020001031C36
:100702000130A002952BF80775080318750FF90739
:1007120076080318760FFA0777080318770FFB0796
:10072200000103180130A007F00DFC0B692B7018B3
:10073200A82B7408F80775080318750FF9077608CF
:100742000318760FFA0777080318770FFB070800DC
:10075200831203138C1AAE2BA92BDF308C051A08D7
:04076200F00008009B
:0E076600831603136E088A006D0882000800D7
:10077400F03083120317210503138800081488102E
:100784000815FA300317A200A301C42103130811AA
:10079400F4300317A2000130A300C4212108F000A3
:1007A400F00D7010F00D7010F00D7010F00D701051
:1007B400F030700503138800081488100815FA3007
:1007C4000317A200A301C42103130811F430031773
:0A07D400A2000130A300C4210800B8
:1007DE00831203172B0899002C089A009B019C0189
:0A07EE00013083160313EF0008002A
:1007F800F030831203172B050313880008148810A0
:100808000815FA300317AD00AE01B2210313081121
:10081800F4300317AD000130AE00B2212B08F00010
:10082800F00D7010F00D7010F00D7010F00D7010CC
:10083800F030700503138800081488100815FA3082
:100848000317AD00AE01B22103130811F4300317EA
:0A085800AD000130AE00B22108002F
:10086200013083120317A7002708043C031C4C2CF9
:100872002608AB002708F000F101F00DF10D701011
:10088200F00DF10D701070082607AC00D62183120E
:080892000317A70A352C08002A
:10089A00F030831203171F0503138800081088100D
:1008AA000815FA300317A200A301C4210313081183
:1008BA00F4300317A2000130A300C4211F08F0007E
:1008CA00F00D7010F00D7010F00D7010F00D70102A
:1008DA00F030700503138800081088100815FA30E4
:1008EA000317A200A301C42103130811F43003174C
:0A08FA00A2000130A300C421080091
:100904007F308B0583120317A9018030F0008030FB
:1009140027067002031D902C2608290203189D2C1B
:1009240029082807AA00A92303172A0884007008A5
:0A0934008000A90A872C8B17080029
:10093E00F030831203172605031388000810881061
:10094E000815FA300317AD00AE01B22103130811DA
:10095E00F4300317AD000130AE00B2212608F000CE
:10096E00F00D7010F00D7010F00D7010F00D701085
:10097E00F030700503138800081088100815FA303F
:10098E000317AD00AE01B22103130811F4300317A3
:0A099E00AD000130AE00B2210800E8
:1009A80083120317A7012708260784000008003AC6
:1009B8000319E62C2708260784000008AB00FC234F
:0609C800A70AD72C08006D
:1009CE00B3238A110A128000840AED0A0319EE0A73
:0809DE00F003031DE72C0800E3
:1009E60083120317A9018030F000803027067002B9
:1009F600031DFF2C260829020318172D290828078E
:100A060084000008AB00F1210230FB000430FC003A
:100A1600BA30FD00FD0B0D2DFC0B0D2DFB0B0D2D26
:0A0A260000000317A90AF62C0800CF
:100A3000831203172808F000A80370080319402D3B
:100A4000260884000008003A0319312D2708840085
:100A50000008F1002608840000087106031D312DEE
:100A60003D2D260884000008F000270884000008B7
:100A7000F002F101031CF103422DA60AA70A182D6A
:060A8000F001F101080085
:100A8600831603136F08031D4F2D013083120317BE
:100A9600AB000030AC00EF23831203171908F000F7
:100AA6001A08F1001B08F2001C08F3006D30F40070
:100AB6004E30F500C630F6004130F700FA213930E5
:100AC600F5003030F600F701F8017008F5077108F7
:100AD6000318710FF60772080318720FF7077308E9
:100AE6000318730FF8077708F0007808F100003054
:100AF600F81BFF30F200F300FF30F0057F30F10500
:100B06000030F205F30570080317990071089A0082
:0A0B160072089B0073089C000800A1
:100B200083120317A00120081F0784000008003A61
:100B30000319A22D20081F0784000008A100BA2372
:060B4000A00A932D08003D
:100B460080308316031387000C148C16203098000F
:100B5600903083129800903098000630F00003170A
:100B66001F08F4002008F5000030F51BFF30F600E2
:100B7600F70070080319C62DF40DF50DF60DF70DE7
:100B86007410FF3EBD2D0030F0001230F1007A30B7
:100B9600F2000030F300312270038316990008003A
:100BA600A226D0308B003130831203139000FF3021
:100BB6008F0083308E00803003179F002530A00001
:100BC600A32501300C0483128C008316EB018312DB
:100BD6008715CF30870583168801023083120317E5
:100BE6009F004D2428309F004D240E309F004D2439
:100BF60001309F004D2480309F004D24C0309F005F
:060C06009025042E052ECE
:100D44002F3084003B3083120313F00048308316A5
:100D5400ED000630EE00E724A03084000F3083124B
:100D64000313F00083308316ED000630EE00E72411
:100D74006A308400063083120313F0009B3083161C
:100D8400ED000630EE00E724AF3084003D308312DE
:100D94000313F0000B308316ED000630EE00E72459
:100DA400103083178400093083120313F00092304B
:100DB4008316ED000630EE00E7248313EC30840044
:100DC400013083120313F00003308316ED0000306A
:060DD400EE00E724080018
:020006000034C4
:100C160044346F346F34723420344C346F3463345C
:080C26006B34653464340034C2
:0A0C2E0031343134313431340034F4
:100C380044346F346F34723420344C346F3463343A
:080C48006B34653464340034A0
:0A0C5000533465346E3474340034FC
:040C5A00003400342E
:100C5E003034303430343034303431343234333460
:100C6E0034343534363437343834393461346234CC
:0A0C7E0063346434653466340034D6
:020C8800033433
:040C8A00FF34FF3400
:020C8E00003430
:100C900044346F346F347234203455346E346C34D1
:0C0CA0006F3463346B346534643400340A
:100CAC0055346E346C346F3463346B346534643463
:100CBC002034623479342034453453345034003485
:020CCC000034F2
:0E0CCE0048346134733468346534643400345F
:100CDC0030343034303430343034303430343034E8
:100CEC0030343034303430343034303430343034D8
:0A0CFC00303430343034303400342A
:100D0600413475347434683465346E3474346934FB
:0E0D160063346134743469346E3467340034ED
:100D240052346534633469346534763465346434F8
:020D3400003489
:0C0D3600683465346C346C346F34003465
:02400E004A2F37
:00000001FF
