:02000000F42DDD
:10000800FF00030E83018316E5000A08E4008A0155
:1000180070088312AD007108AC007208AB00730859
:10002800AA007408A9007508A8007608A700770830
:10003800A6007808A5007908A4007A08A3007B0820
:10004800A2007C08A1000408AE00E60A0319E70A2A
:100058000C1C4028E90A00306902031C34280715E3
:1000680068086902031C3A28FB3087056908283AA2
:10007800031D4028E9010715FF306502031D4628C6
:10008800FF30640203184B28E40A0319E50AFF301D
:100098008F0083308E006A0803195E2800306706D7
:1000A800031D5828FA306606031D5E28203087068F
:1000B800E601E7016508273A031D64281030640645
:1000C800031D69280715CF30870565082E3A031DDB
:1000D8006F28E0306406031D9428EA010330E80025
:1000E8008715EF30870502308316ED00B2242830DB
:1000F80083160313ED00B2240E3083160313ED00AC
:10010800B224013083160313ED00B2248030831625
:100118000313ED00B224AE3083160313ED00E92477
:10012800FE3083128C058C1E8F296B08C03E84001C
:100138001A088000EB0A6B08053A031D8C29C030A9
:100148008316ED00BA30EE000530EF003B25003095
:100158007106031DB12800307006031D8C2902307A
:10016800ED00B224283083160313ED00B2240E30BC
:1001780083160313ED00B224013083160313ED0038
:10018800B224803083160313ED00B2244230831664
:100198000313ED00E9248230FC00DD30FD00FD0B87
:1001A800D328FC0BD32800000000EB0104306B02BD
:1001B8000318E9286B08483EEC00662583166C088E
:1001C800840070088000EB0ADA280430ED00003063
:1001D800EE004830EF000C25023083160313ED00C3
:1001E800B224283083160313ED00B2240E30831690
:1001F8000313ED00B224013083160313ED00B2247B
:10020800803083160313ED00B2243D3083160313A8
:10021800ED00E9240430ED000030EE002F30EF004F
:100228008B24023083160313ED00B2242830831682
:100238000313ED00B2240E3083160313ED00B2242D
:10024800013083160313ED00B224803083160313A4
:10025800ED00B224343083160313ED00E92448304E
:10026800ED0034240230ED00B22428308316031345
:10027800ED00B2240E3083160313ED00B2240130D2
:1002880083160313ED00B224803083160313ED00A8
:10029800B2245D3083160313ED00E9242F30ED00FE
:1002A8004830EE000430EF003B2500307106031D96
:1002B8005F2900307006031D8C2901308312EA0083
:1002C800E601E7010130E8000716F730870502303C
:1002D8008316ED00B224283083160313ED00B224F0
:1002E8000E3083160313ED00B22401308316031376
:1002F800ED00B224803083160313ED00B224A03041
:1003080083160313ED00E9248312E401E501EB01F0
:100318008312DF308C052D08F0002C08F1002B0823
:10032800F2002A08F3002908F4002808F500270835
:10033800F6002608F7002508F8002408F900230825
:10034800FA002208FB002108FC002E08840083160E
:0E03580064088A00650E8300FF0E7F0E090008
:1003660083120313F101F201031715087202031D2C
:10037600BE29140871020318C429F10A0319F20AE6
:04038600B72908008B
:10038A0083120313F101F20183166A087202031D34
:10039A00D029690871020318D629F10A0319F20A49
:0403AA00C929080055
:1003AE0083120313F201043072020318F12972084A
:1003BE0003171207F100710884000008F00072089C
:1003CE00130784000008F00671088400700880008E
:0603DE00F20ADA29080012
:1003E400EF30831203138C050317120803139900CB
:0203F4000800FF
:1003F600831203132230FC00F801F901FA01FB0114
:10040600FC030319312A0310FB0CFA0CF90CF80C47
:10041600F30CF20CF10CF00C031C032AFC03031979
:10042600232A7408F80775080318750FF907760864
:100436000318760FFA0777080318770FFB07072AC2
:100446007408F80775080318750FF9077608031876
:0E045600760FFA0777080318770FFB070800E8
:1004640083120313FB01FA01F901F801A001730DD2
:10047400F80D7408F8027508031C750FF902760864
:10048400031C760FFA027708031C770FFB020001A6
:10049400031C0130A002F30D0730FC00730DF80DAE
:1004A400F90DFA0DFB0DA00D7408731C6B2AF802EC
:1004B4007508031C750FF9027608031C760FFA02FF
:1004C4007708031C770FFB020001031C0130A00214
:1004D4007C2AF80775080318750FF90776080318BE
:1004E400760FFA0777080318770FFB070001031844
:1004F4000130A007F30DFC0B502A720DF80DF90D15
:10050400FA0DFB0DA00D7408731C9A2AF8027508E5
:10051400031C750FF9027608031C760FFA0277089C
:10052400031C770FFB020001031C0130A002AB2A5D
:10053400F80775080318750FF90776080318760F7E
:10054400FA0777080318770FFB0700010318013037
:10055400A007F20D0730FC00720DF80DF90DFA0D2D
:10056400FB0DA00D7408721CC92AF8027508031C3F
:10057400750FF9027608031C760FFA027708031C3C
:10058400770FFB020001031C0130A002DA2AF807EE
:1005940075080318750FF90776080318760FFA071C
:1005A40077080318770FFB07000103180130A00731
:1005B400F20DFC0BAE2A710DF80DF90DFA0DFB0DC1
:1005C400A00D7408721CF82AF8027508031C750F34
:1005D400F9027608031C760FFA027708031C770FDA
:1005E400FB020001031C0130A002092BF807750867
:1005F4000318750FF90776080318760FFA077708BA
:100604000318770FFB07000103180130A007F10D51
:100614000730FC00710DF80DF90DFA0DFB0DA00D5E
:100624007408711C272BF8027508031C750FF90256
:100634007608031C760FFA027708031C770FFB0277
:100644000001031C0130A002382BF80775080318B9
:10065400750FF90776080318760FFA077708031859
:10066400770FFB07000103180130A007F10DFC0B05
:100674000C2B700DF80DF90DFA0DFB0DA00D74087F
:10068400711C562BF8027508031C750FF9027608C5
:10069400031C760FFA027708031C770FFB02000194
:1006A400031C0130A002672BF80775080318750FA7
:1006B400F90776080318760FFA0777080318770FF7
:1006C400FB07000103180130A007F00D0730FC0000
:1006D400700DF80DF90DFA0DFB0DA00D7408701CCA
:1006E400852BF8027508031C750FF9027608031CA4
:1006F400760FFA027708031C770FFB020001031C34
:100704000130A002962BF80775080318750FF90736
:1007140076080318760FFA0777080318770FFB0794
:10072400000103180130A007F00DFC0B6A2B7018B0
:10073400A92B7408F80775080318750FF9077608CC
:100744000318760FFA0777080318770FFB070800DA
:10075400831203138C1AAF2BAA2BDF308C051A08D3
:04076400F000080099
:0E0768008316031362088A00610882000800ED
:10077600F030831603136805831288000814881066
:100786000815FA308316E900EA01C521831208111B
:10079600F4308316E9000130EA00C5216808F0004C
:1007A600F00D7010F00D7010F00D7010F00D70104F
:1007B600F030700583128800081488100815FA3086
:1007C6008316E900EA01C52183120811F430831665
:0A07D600E9000130EA00C521080027
:1007E0008312031712080313EC00031713080313F3
:0E07F000ED00EE01EF0101308316E30008007A
:1007FE00F0308312031712050313880008148810B3
:10080E000815FA30031794009501B321031308114C
:10081E00F4300317940001309500B3211208F00054
:10082E00F00D7010F00D7010F00D7010F00D7010C6
:10083E00F030700503138800081488100815FA307C
:10084E00031794009501B32103130811F430031715
:0A085E00940001309500B32108005A
:10086800013083160313EE006E08043C031C552C5C
:100878006D08831203179200831603136E08F000A5
:10088800F101F00DF10D7010F00DF10D7010700800
:100898006D07831203179300D72183160313EE0AFB
:0408A800382C0800E0
:1008AC00F030831603136605831288000810881035
:1008BC000815FA308316E900EA01C52183120811E4
:1008CC00F4308316E9000130EA00C5216608F00017
:1008DC00F00D7010F00D7010F00D7010F00D701018
:1008EC00F030700583128800081088100815FA3053
:1008FC008316E900EA01C52183120811F43083162E
:0A090C00E9000130EA00C5210800EF
:100916007F308B058312031790018030F000803002
:10092600831603136E067002031D9D2C6D08831239
:10093600031710020318B02C83120317100883162E
:1009460003136F07831203179100AA2303171108D5
:0E095600840070088000900A902C8B17080017
:10096400F030831603136D05831288000810881075
:100974000815FA30031794009501B32103130811E5
:10098400F4300317940001309500B3218316031348
:100994006D08F000F00D7010F00D7010F00D701077
:1009A400F00D7010F0307005831288000810881064
:1009B4000815FA30031794009501B32103130811A5
:0E09C400F4300317940001309500B3210800B1
:1009D20083160313EE016E086D0784000008003AC7
:1009E2000319FF2C6E086D07840000088312031799
:0E09F2009200FF2383160313EE0AEC2C08007C
:100A0000B4238A110A128000840AE10A0319E20A57
:080A1000F003031D002D080096
:100A18008312031790018030F0008030831603138F
:100A28006E067002031D1C2D6D0883120317100239
:100A380003183A2D831203171008831603136F0740
:100A480084000008831203179200F2210230FB0091
:100A58000430FC00BA30FD00FD0B302DFC0B302DAE
:0E0A6800FB0B302D00000317900A0F2D080025
:100A7600831603136F08F000EF0370080319632D44
:100A86006D0884000008003A0319542D6E0884008E
:100A96000008F1006D08840000087106031D542D3E
:100AA600602D6D0884000008F0006E0884000008C0
:100AB600F002F101031CF103652DED0AEE0A3B2D50
:060AC600F001F10108003F
:100ACC00831603136308031D722D01308312031761
:100ADC00920000309300F02383126C08F0006D0834
:100AEC00F1006E08F2006F08F3006D30F4004E3028
:100AFC00F500C630F6004130F700FB213930F50027
:100B0C003030F600F701F8017008F507710803188A
:100B1C00710FF60772080318720FF70773080318A2
:100B2C00730FF8077708F0007808F1000030F81B15
:100B3C00FF30F200F300FF30F0057F30F10500309C
:100B4C00F205F3057008EC007108ED007208EE0078
:060B5C007308EF00080021
:100B620083160313E7016708660784000008003A4A
:100B72000319C32D6708660784000008E800BB2339
:060B8200E70AB42D080093
:100B880080308316031387000C148C1620309800CD
:100B9800903083129800903098000630F000831649
:100BA8006608F4006708F5000030F51BFF30F60012
:100BB800F70070080319E72DF40DF50DF60DF70D84
:100BC8007410FF3EDE2D0030F0001230F1007A3054
:100BD800F2000030F30032227003831699000800F7
:100BE800A626C0308B003130831203139000FF30EB
:100BF8008F0083308E0080308316E6002530E700B2
:100C0800C42501300C0483128C00EA018715CF300B
:100C18008705831688010230E60056242830E6004E
:100C280056240E30E60056240130E6005624803063
:0E0C3800E6005624D530E600B125212E222EEE
:100D4C002F308400353083120313F00028308316C3
:100D5C00E1000630E2000025A03084000E30F000E7
:100D6C007E308316E1000630E200002564308400FA
:100D7C000230F000A3308316E1000630E2000025BB
:100D8C00AE3084000C30F0008C308316E10006305D
:100D9C00E2000025663084000530F0009E3083169A
:100DAC00E1000630E2000025BA3084000630F00085
:100DBC0098308316E1000630E20000256B30840089
:100DCC000130F00003308316E1000030E200002512
:100DDC00C03084002130F0005D308316E100063015
:060DEC00E20000250800F2
:020006000034C4
:0A0C500031343134313431340034D2
:100C5A0052346534633469346534763465346434C3
:020C6A00003454
:0A0C6C00533465346E3474340034E0
:0C0C7600683465346C346C346F34003426
:100C8200303430343034303430343134323433343C
:100C920034343534363437343834393461346234A8
:0A0CA20063346434653466340034B2
:0E0CAC00483461347334683465346434003481
:100CBA00303430343034303430343034303430340A
:100CCA0030343034303430343034303430343034FA
:0A0CDA00303430343034303400344C
:100CE40044346F346F34723420344C346F3463348E
:080CF4006B34653464340034F4
:100CFC0044346F346F347234203455346E346C3465
:0C0D0C006F3463346B346534643400349D
:100D180044346F346F34723420344C346F34633459
:080D28006B34653464340034BF
:0C0D3000683465346C346C346F3400346B
:040D3C00003400344B
:020D400003347A
:020D420000347B
:020D4400003479
:040D4600FF34FF3443
:02400E004A2F37
:00000001FF
