:02000000422A92
:1000060083120313F2010430720203181C287208CB
:100016004A07F100710884000008F00072084B07D7
:1000260084000008F0067108840070088000F20A57
:040036000628080090
:10003A00831203138C1A22281D28DF308C051A0814
:04004A00F0000800BA
:10004E0083120313FB01FA01F901F801A001730DEC
:10005E00F80D7408F8027508031C750FF90276087E
:10006E00031C760FFA027708031C770FFB020001C0
:10007E00031C0130A002F30D0730FC00730DF80DC8
:10008E00F90DFA0DFB0DA00D7408731C6028F80213
:10009E007508031C750FF9027608031C760FFA0219
:1000AE007708031C770FFB020001031C0130A0022E
:1000BE007128F80775080318750FF90776080318E5
:1000CE00760FFA0777080318770FFB07000103185E
:1000DE000130A007F30DFC0B4528720DF80DF90D3C
:1000EE00FA0DFB0DA00D7408731C8F28F80275080D
:1000FE00031C750FF9027608031C760FFA027708B7
:10010E00031C770FFB020001031C0130A002A02884
:10011E00F80775080318750FF90776080318760F98
:10012E00FA0777080318770FFB0700010318013051
:10013E00A007F20D0730FC00720DF80DF90DFA0D47
:10014E00FB0DA00D7408721CBE28F8027508031C66
:10015E00750FF9027608031C760FFA027708031C56
:10016E00770FFB020001031C0130A002CF28F80715
:10017E0075080318750FF90776080318760FFA0736
:10018E0077080318770FFB07000103180130A0074B
:10019E00F20DFC0BA328710DF80DF90DFA0DFB0DE8
:1001AE00A00D7408721CED28F8027508031C750F5B
:1001BE00F9027608031C760FFA027708031C770FF4
:1001CE00FB020001031C0130A002FE28F80775088F
:1001DE000318750FF90776080318760FFA077708D4
:1001EE000318770FFB07000103180130A007F10D6C
:1001FE000730FC00710DF80DF90DFA0DFB0DA00D79
:10020E007408711C1C29F8027508031C750FF9027D
:10021E007608031C760FFA027708031C770FFB0291
:10022E000001031C0130A0022D29F80775080318E0
:10023E00750FF90776080318760FFA077708031873
:10024E00770FFB07000103180130A007F10DFC0B1F
:10025E000129700DF80DF90DFA0DFB0DA00D7408A6
:10026E00711C4B29F8027508031C750FF9027608EC
:10027E00031C760FFA027708031C770FFB020001AE
:10028E00031C0130A0025C29F80775080318750FCE
:10029E00F90776080318760FFA0777080318770F11
:1002AE00FB07000103180130A007F00D0730FC001A
:1002BE00700DF80DF90DFA0DFB0DA00D7408701CE4
:1002CE007A29F8027508031C750FF9027608031CCB
:1002DE00760FFA027708031C770FFB020001031C4E
:1002EE000130A0028B29F80775080318750FF9075E
:1002FE0076080318760FFA0777080318770FFB07AF
:10030E00000103180130A007F00DFC0B5F297018D7
:10031E009E297408F80775080318750FF9077608F3
:10032E000318760FFA0777080318770FFB070800F4
:0E033E008312031343088A004208820008005D
:0E034C00EF30831203138C054A089900080055
:10035A0083120313C8018030F00080304606700211
:10036A00031DB929450848020318D0294808470738
:10037A0084000008CA00A6210230FB000430FC00F9
:10038A00BA30FD00FD0BC729FC0BC729FB0BC72997
:08039A000000C80AB0290800A8
:1003A200013083120313C6004608043C031CEA29E9
:1003B2004508CA004608F000F101F00DF10D701079
:1003C200F00DF10D701070084507CB000320C60A2E
:0403D200D529080021
:1003D6009F218A110A128000840AC20A0319C30ADD
:0803E600F003031DEB290800E0
:1003EE007F308B0583120313C8018030F0008030FC
:1003FE0046067002031D052A450848020318112AF5
:10040E0048084707C9001D2049088400700880006D
:08041E00C80AFC298B17080035
:1004260080308316031387000C148C162030980036
:10043600903083129800903098000630F0004508FE
:10044600F4004608F5000030F51BFF30F600F70013
:1004560070080319352AF40DF50DF60DF70D741015
:10046600FF3E2C2A0030F0001230F1007A30F20004
:0E0476000030F3002720700383169900080061
:10048400303083120313A1003030A2003030A300B7
:100494003030A4003030A5003130A6003230A7003F
:1004A4003330A8003430A9003530AA003630AB0010
:1004B4003730AC003830AD003930AE006130AF00B9
:1004C4006230B0006330B1006430B2006530B30014
:1004D4006630B400B5013030B6003030B70030308B
:1004E400B8003030B900BA01BB016830BC006530D7
:1004F400BD006C30BE006C30BF006F30C000C10165
:100504008030C5002530C60013223330FB00BB30D9
:10051400FC00DF30FD00FD0B8D2AFC0B8D2AFB0B4C
:100524008D2A0000000005308312C5000030C6008B
:100534003C30C700AD210430C5000030C600213076
:10054400C700F7212130C500D121C4010430440281
:100554000318BA2A4408363EF1004408213E8400B8
:100564000008F0007108840070088000C40AA82AFA
:100574000430C5000030C6003630C700AD21C12AA2
:02058400C22A89
:02400E004A2F37
:00000001FF
