:02000000E029F5
:0E000600EF30831203138C05360899000800B2
:0E0014008312031333088A00320882000800AA
:1000220083120313FB01FA01F901F801A001730D18
:10003200F80D7408F8027508031C750FF9027608AA
:10004200031C760FFA027708031C770FFB020001EC
:10005200031C0130A002F30D0730FC00730DF80DF4
:10006200F90DFA0DFB0DA00D7408731C4A28F80255
:100072007508031C750FF9027608031C760FFA0245
:100082007708031C770FFB020001031C0130A0025A
:100092005B28F80775080318750FF9077608031827
:1000A200760FFA0777080318770FFB07000103188A
:1000B2000130A007F30DFC0B2F28720DF80DF90D7E
:1000C200FA0DFB0DA00D7408731C7928F80275084F
:1000D200031C750FF9027608031C760FFA027708E3
:1000E200031C770FFB020001031C0130A0028A28C7
:1000F200F80775080318750FF90776080318760FC5
:10010200FA0777080318770FFB070001031801307D
:10011200A007F20D0730FC00720DF80DF90DFA0D73
:10012200FB0DA00D7408721CA828F8027508031CA8
:10013200750FF9027608031C760FFA027708031C82
:10014200770FFB020001031C0130A002B928F80757
:1001520075080318750FF90776080318760FFA0762
:1001620077080318770FFB07000103180130A00777
:10017200F20DFC0B8D28710DF80DF90DFA0DFB0D2A
:10018200A00D7408721CD728F8027508031C750F9D
:10019200F9027608031C760FFA027708031C770F20
:1001A200FB020001031C0130A002E828F8077508D1
:1001B2000318750FF90776080318760FFA07770800
:1001C2000318770FFB07000103180130A007F10D98
:1001D2000730FC00710DF80DF90DFA0DFB0DA00DA5
:1001E2007408711C0629F8027508031C750FF902C0
:1001F2007608031C760FFA027708031C770FFB02BE
:100202000001031C0130A0021729F8077508031822
:10021200750FF90776080318760FFA07770803189F
:10022200770FFB07000103180130A007F10DFC0B4B
:10023200EB28700DF80DF90DFA0DFB0DA00D7408E9
:10024200711C3529F8027508031C750FF90276082E
:10025200031C760FFA027708031C770FFB020001DA
:10026200031C0130A0024629F80775080318750F10
:10027200F90776080318760FFA0777080318770F3D
:10028200FB07000103180130A007F00D0730FC0046
:10029200700DF80DF90DFA0DFB0DA00D7408701C10
:1002A2006429F8027508031C750FF9027608031C0D
:1002B200760FFA027708031C770FFB020001031C7A
:1002C2000130A0027529F80775080318750FF907A0
:1002D20076080318760FFA0777080318770FFB07DB
:1002E200000103180130A007F00DFC0B492970181A
:1002F20088297408F80775080318750FF907760836
:100302000318760FFA0777080318770FFB07080020
:1003120083120313B5013508340784000008003A3C
:100322000319A8293508340784000008B600032001
:100332000230FB000430FC00BA30FD00FD0B9F29A7
:10034200FC0B9F29FB0B9F290000B50A8C29080092
:100352000A208A110A128000840AB20A0319B30A17
:08036200F003031DA9290800A6
:10036A008030831603138700203098009030831260
:10037A0098000630F0003408F4003508F500003023
:10038A00F51BFF30F600F70070080319D329F40DA6
:10039A00F50DF60DF70D7410FF3ECA290030F00076
:1003AA001230F1007A30F2000030F30011207003AD
:0603BA0083169900080003
:1003C000483083120313A1006530A2006C30A300F3
:1003D0006C30A4006F30A5002030A6005730A70075
:1003E0006F30A8007230A9006C30AA006430AB00F6
:1003F0002030AC004730AD004730AE002130AF00B8
:100400002130B000B1018030B4002530B500B521F5
:100410003330FB00BB30FC00DF30FD00FD0B0E2A4B
:10042000FC0B0E2AFB0B0E2A000000002130831269
:08043000B40089211A2A1B2ADD
:02400E004A2F37
:00000001FF
