:02000000902A44
:10000800FF00030E8301BA000A08B9008A017008CC
:10001800A3007108A2007208A1000408A400360811
:10002800253E84001A088000B60ADF308C05831646
:10003800880102308312BD0044222830BD004422CA
:100048000E30BD0044220130BD0044228030BD0086
:1000580044223608103A031D4728831688010230C7
:100068008312BD0044222830BD0044220E30BD005A
:1000780044220130BD0044228030BD004422253096
:10008800BD007122B6012308F0002208F100210802
:10009800F2002408840039088A003A0E8300FF0E13
:0400A8007F0E0900BE
:1000AC0083120313F101F20141087202031D60284F
:1000BC004008710203186628F10A0319F20A5A283B
:0200CC0008002A
:0E00CE008312031338088A00370882000800E6
:1000DC00F030831203133F058800081488100815AC
:1000EC00FA30C000C10156200811F430C0000130B4
:1000FC00C10056203F08F000F00D7010F00D70108C
:10010C00F00D7010F00D7010F030700588000814B0
:10011C0088100815FA30C000C10156200811F430BF
:0A012C00C0000130C1005620080099
:1001360083120313FB01FA01F901F801A001730D03
:10014600F80D7408F8027508031C750FF902760895
:10015600031C760FFA027708031C770FFB020001D7
:10016600031C0130A002F30D0730FC00730DF80DDF
:10017600F90DFA0DFB0DA00D7408731CD428F802B6
:100186007508031C750FF9027608031C760FFA0230
:100196007708031C770FFB020001031C0130A00245
:1001A600E528F80775080318750FF9077608031888
:1001B600760FFA0777080318770FFB070001031875
:1001C6000130A007F30DFC0BB928720DF80DF90DDF
:1001D600FA0DFB0DA00D7408731C0329F8027508AF
:1001E600031C750FF9027608031C760FFA027708CE
:1001F600031C770FFB020001031C0130A002142927
:10020600F80775080318750FF90776080318760FAF
:10021600FA0777080318770FFB0700010318013068
:10022600A007F20D0730FC00720DF80DF90DFA0D5E
:10023600FB0DA00D7408721C3229F8027508031C08
:10024600750FF9027608031C760FFA027708031C6D
:10025600770FFB020001031C0130A0024329F807B7
:1002660075080318750FF90776080318760FFA074D
:1002760077080318770FFB07000103180130A00762
:10028600F20DFC0B1729710DF80DF90DFA0DFB0D8A
:10029600A00D7408721C6129F8027508031C750FFD
:1002A600F9027608031C760FFA027708031C770F0B
:1002B600FB020001031C0130A0027229F807750831
:1002C6000318750FF90776080318760FFA077708EB
:1002D6000318770FFB07000103180130A007F10D83
:1002E6000730FC00710DF80DF90DFA0DFB0DA00D90
:1002F6007408711C9029F8027508031C750FF90221
:100306007608031C760FFA027708031C770FFB02A8
:100316000001031C0130A002A129F8077508031883
:10032600750FF90776080318760FFA07770803188A
:10033600770FFB07000103180130A007F10DFC0B36
:100346007529700DF80DF90DFA0DFB0DA00D740849
:10035600711CBF29F8027508031C750FF90276088F
:10036600031C760FFA027708031C770FFB020001C5
:10037600031C0130A002D029F80775080318750F71
:10038600F90776080318760FFA0777080318770F28
:10039600FB07000103180130A007F00D0730FC0031
:1003A600700DF80DF90DFA0DFB0DA00D7408701CFB
:1003B600EE29F8027508031C750FF9027608031C6E
:1003C600760FFA027708031C770FFB020001031C65
:1003D6000130A002FF29F80775080318750FF90701
:1003E60076080318760FFA0777080318770FFB07C6
:1003F600000103180130A007F00DFC0BD32970187B
:10040600122A7408F80775080318750FF907760895
:100416000318760FFA0777080318770FFB0708000B
:10042600C0308B002030831603138C008030870089
:100436002030980090308312980090309800063053
:10044600F0003B08F4003C08F5000030F51BFF30D7
:10045600F600F70070080319372AF40DF50DF60DAE
:10046600F70D7410FF3E2E2A0030F0001230F10016
:100476007A30F2000030F3009B2070038316990057
:0204860008006C
:10048800F030831203133D05880008108810081502
:10049800FA30C000C10156200811F430C000013004
:1004A800C10056203D08F000F00D7010F00D7010DE
:1004B800F00D7010F00D7010F03070058800081005
:1004C80088100815FA30C000C10156200811F43010
:0A04D800C0000130C10056200800EA
:1004E20083120313BE013E083D0784000008003A50
:1004F2000319832A3E083D0784000008BF006E20CE
:06050200BE0A742A080085
:1005080067208A110A128000840AB70A0319B80AF8
:08051800F003031D842A080012
:10052000303083120313A5003130A6003230A7000B
:100530003330A8003430A9003530AA003630AB0083
:100540003730AC003830AD003930AE006130AF002C
:100550006230B0006330B1006430B2006530B30087
:100560006630B400B501B601831689018312890192
:100570008030BB002530BC0013226300BD2ABF2A97
:02400E004A2F37
:00000001FF
